:030000000217B62E
:0C17B600787FE4F6D8FD7581070217FD6E
:101A1300BABDCCABB5E7D7D3D3D0CFDEB9ABCBBE52
:101A230000436F6C6F722053637265656E2054655B
:101A330073742056302E32004C434420696E69740F
:101A4300204F4B00534420496E6974204661696CF2
:101A53000053442052656164204661696C00506CF8
:0F1A63006561736520546F756368204D652100C0
:0400030041023E0078
:101D7100E4FDFCC3ED9FEC9E5015E4FBFA0BBB00A8
:0F1D8100010AEB64F94A70F50DBD00010C80E416
:011D90002230
:101E5E00758901758C63758AC0D2A9D28CD2AF22D6
:101E4D00759850758920758DFD758BFDD2ACD28E30
:011E5D002262
:101B7C00900239EBF0A3EAF0A3E9F0A3ECF0A3EDAB
:011B8C00F068
:101B8D00E4FFFED390023DE09FEE6480F890023CAE
:101B9D00E06480984026C2ACC299900239E0FBA364
:101BAD00E0FAA3E0F98F828E83120AD9F599309964
:0C1BBD00FDC299D2AC0FBF00010E80C722
:011BC90022F9
:060F6D00900200120C0BC3
:100F7300900204120C1700000000900208120C17D4
:100F83000000000090020C120C17000000009002F9
:100F9300207401F0A3743FF07BEF7A00E4FDFCFFC3
:100FA300FE1218CD7F007E2C7D017C00900204E0B0
:100FB300F8A3E0F9A3E0FAA3E0FBC3120BFA4003A2
:100FC3000210E4E4FF7E02FDFC90020CE0F8A3E0D3
:100FD300F9A3E0FAA3E0FB120BAB900200E0F8A345
:100FE300E0F9A3E0FAA3E02FFFEA3EFEE93DFDE8C6
:100FF3003CFC9002177402F0A3E4F07B017A0079C1
:1010030000121842900208120C1700000000E4FFBF
:101013007E01FDFC900208E0F8A3E0F9A3E0FAA347
:10102300E0FBC3120BFA40030210C2900208A3A311
:10103300E0FEA3E090000175F002120C48EE25E0FB
:101043002583F583E0FF900208A3A3A3E0900000AB
:1010530075F002120C48EA25E02583F583E0FD12C2
:101063001E35900204E0FCA3E0FDA3E0FEA3E02410
:1010730001FFE43EFEE43DFDE43CFC900204120C5F
:101083000B7F007E2C7D017C00900204E0F8A3E03E
:10109300F9A3E0FAA3E0FBC3120BFA502290020873
:1010A300E0FCA3E0FDA3E0FEA3E02401FFE43EFE99
:1010B300E43DFDE43CFC900208120C0B021011907D
:1010C300020CE0FCA3E0FDA3E0FEA3E02401FFE4A7
:1010D3003EFEE43DFDE43CFC90020C120C0B020FBF
:0110E300A765
:0110E40022E9
:101ACE00D2A37F0A7E00121D7120A34C1219B312ED
:101ADE001CAD7BFF7A1A7913E4FDFF1211F67BFF22
:101AEE007A1A79137D02E4FF1211F67BFF7A1A79C6
:101AFE00137D04E4FF1211F67BFF7A1A79137D062B
:101B0E00E4FF1211F67F207E03121D71121CAD7FB1
:091B1E00907E01121D7180BA22B3
:100C5400D2A67580FFC2A6D2A77580FFC2A7121EB6
:100C64005E121ACEE490023FF0A3F0A3F0A3F012B8
:100C74000DE17DFF7FFF121A727BFF7A1A792490AF
:100C8400020774F8F0A3E4F074FFA3F0A3F0E4FD0A
:100C9400FC7F14FE12159E7BFF7A1A793B900207A3
:100CA40074F8F0A3E4F074FFA3F0A3F07D147C00C7
:100CB4007F147E0012159E121942EF70207BFF7A7A
:100CC4001A794790020774F8F0A3E4F074FFA3F0D4
:100CD400A3F07D287C007F147E0012159E7B017A90
:100CE4000079009002177402F0A3E4F0FF7E107DF7
:100CF40040FC121842EF70227BFF7A1A795490025A
:100D04000774F8F0A3E4F074FFA3F0A3F07D287C4B
:100D1400007F147E0012159E80397B017A007900D1
:100D240090020774F8F0A3E4F074FFA3F0A3F07D3D
:100D3400147C007F147E0012159E7FD07E07121D46
:100D4400717F007E807D427C00120F6D7FD07E0714
:100D5400121D717B007AF87D0A7C007F0A7E0012E6
:100D64001B277B007AF87D0A7C007FE67E00121B3D
:100D7400277B007AF87D367C017F0A7E00121B27D0
:100D84007B007AF87D367C017FE67E00121B277B90
:100D9400FF7A1A796190020774F8F0A3E4F074FF03
:100DA400A3F0A3F07D3C7C007F147E0012159E12FC
:100DB4001654783F7C027D017E007F04120A9A90CB
:100DC400023FE0FEA3E0FFF47002EEF460E1A3E072
:0D0DD400FCA3E0FD7BE07A07121B2780D214
:03000B00021D29AA
:081D2900C0E0C083C082C0D0FD
:101D3100758C63758AC090023EE004F0E0B419042A
:041D4100B2A0E4F078
:091D4500D0D0D082D083D0E0326E
:091CD9007CCC7F13121DCE7F01AB
:101CE200E4FDFCC3ED9FEC9E5015E4FBFA0BBB0038
:0F1CF200010AEB64F94A70F50DBD00010C80E4A6
:011D010022BF
:0F1E6E008F80C2B6D2B6AF058F80C2B6D2B62271
:051E8600C2B5021E6E52
:0F1E2600121E35E0FF121E35E0FF121E35E0FFE1
:051E3500D2B5021E6E93
:031DCB00E4FDFC38
:101DCE00AB05AA04AD07AC06ECFF121E86EAFFAD0A
:041DDE0003021E35A9
:1018CD0090021AEEF0A3EFF0A3ECF0A3EDF07D463D
:1018DD00E4FF121E86AF0390021AA3E0FD121E351F
:1018ED007D47E4FF121E86900220E0FCA3E0FDEC94
:1018FD00FF121E357D48E4FF121E8690021CE0FC8F
:10190D00A3E0FDECFF121E357D20E4FF121E869034
:10191D00021AE0FCA3E0FDECFF121E357D21E4FF71
:10192D00121E86A3E0FCA3E0FDECFF121E357D2206
:05193D00E4FF021E861C
:100DE100D2B37F057E00121CE2C2B3121CE2D2B361
:100DF100D2B7D2B4D2B6121CE2C2B77D047C207F36
:100E010011121DCE7D007CCC7F13121DCE7D007C86
:100E1100267F15121DCE7D2A7C257F14121DCE7DC5
:100E2100337C007F12121DCE7D04121CD97D061267
:100E31001CD97D4F121CD97D4F7C677F13121DCEAB
:100E41007D037C207F11121CDD7D097C267F301201
:100E51001DCE7D2C7C247F31121DCE7D237C1F7FF6
:100E610032121DCE7D257C247F33121DCE7D267C42
:100E7100227F34121DCE7D237C257F35121DCE7D30
:100E81001A7C1C7F36121DCE7D1D7C137F37121DEF
:100E9100CE7D117C0B7F38121DCE7D107C127F39E7
:100EA100121DCE7D157C137F3A121DCE7D197C3625
:100EB1007F3B121DCE7D007C0D7F3C121DCE7D0D32
:100EC1007C007F3D121DCE7D077C007F16121DCE5A
:100ED1007D137C007F02121DCE7D037C007F0312F7
:100EE1001DCE7D277C017F01121CDD7403FDFC7F7B
:100EF10008121DCE7D0B7C007F0A121DCE7D037C66
:100F0100007F0B121DCE7F0C121DCB7F41121DCB1A
:100F1100E4FDFC7F50121DCE7D057C007F60121D1B
:100F2100CE7D0B7C007F70121DCEE4FDFC7F711223
:100F31001DCEE4FDFC7F78121DCEE4FDFC7F7A120C
:100F41001DCE7D077C007F79121DCE7D517C007FF7
:100F510007121CDD7D537C007F07121DCEE4FDFCD2
:0C0F61007F79121DCE7D22E4FF021E8667
:071A7200900200EFF0A9054E
:101A79009002207401F0A3743FF07BEF7A00E4FD3B
:101A8900FCFFFE1218CDE4900201F0A3F0E4FBFA8A
:101A9900900200E0FFAD01121E350BBB00010AEBFD
:101AA90064F04A70EB900202E004F07006900201C3
:101AB900E004F0C3900202E09440900201E06480E7
:041AC900948140C9FB
:011ACD0022F6
:1012FD00900224ECF0A3EDF0900222EEF0A3EFF0BB
:10130D00900227E02FFB900226E03EFAD3EB94F0FB
:10131D00EA940040037F0022900228E0FEA3E0FF44
:10132D00900224E0FCA3E0FD2FFFEC3EFED3EF94F2
:10133D0040EE940140037F0022EB24FFFBEA34FFD3
:10134D00FA900228E0FEA3E0FF900224E0F8A3E06B
:10135D002FFFE83ECF24FFCF34FF900220F0A3EF04
:10136D00F0900222E0FEA3E0FF1218CD900228E0DB
:10137D00FCA3E0FD900226E0FEA3E0FF120B189007
:10138D00022FEEF0A3EFF0E490022DF0A3F0900207
:10139D002FE0FEA3E0FFC390022EE09F90022DE010
:1013AD009E5040A3E025E0FD90022DE033FCED249E
:1013BD0001FFE43CFE90022AE0FBA3E0FAA3E0F972
:1013CD008F828E83120AD9FF8D828C83120AD9FDEA
:1013DD00121E3590022EE004F0700690022DE004EE
:0513ED00F080AB7F0160
:0113F20022D8
:1014DE00900233ECF0A3EDF0900231EEF0A3EFF0BA
:0814EE00900235EAF0A3EBF0D7
:1014F6002FFFEE3AFED3EF94F0EE940040037F0008
:1015060022900237E0FEA3E0FF900233E0FCA3E066
:10151600FD2FFFEC3EFED3EF9440EE940140037F97
:101526000022900235E0FEA3E0FF900231E0FAA32C
:10153600E02FFFEA3ECF24FFFBEF34FFFA9002379D
:10154600E0FEA3E0FF900233E0F8A3E02FFFE83EC1
:10155600CF24FFCF34FF900220F0A3EFF0900231AA
:10156600E0FEA3E0FF1218CD900237E0FCA3E0FDF9
:10157600900235E0FEA3E0FF120B18AB07AA069017
:101586000000C3E5829BE5839A500A7DFF7FFF1228
:071596001E35A380ED7F016B
:01159D00222B
:101C4E00E4FDFC90001A75F00DED120C48EC75F0E9
:101C5E000DA42583F583E493FE64206010EEB50792
:101C6E0005AF05AE04220DBD00010C80D6AE04AF4B
:011C7E000560
:011C7F002242
:1013F300900211ECF0A3EDF090020FEEF0A3EFF0EA
:101403002408FFE43EFED3EF94F0EE940040030281
:1014130014DD900212E0240CFF900211E03400FE70
:10142300D3EF9440EE940140030214DDAF03121C8A
:101433004E900218EEF0A3EFF090020FE0FAA3E053
:10144300FBFFAE02C006C007A3E0FCA3E0FDEB2454
:1014530007FBE43AFA900211E0FEA3E0240BFFE459
:101463003E900220F0A3EFF0D007D0061218CDE48F
:10147300FAE4FB900218E0FEA3E090000E75F00D75
:10148300120C48EE75F00DA42583F583E5822AF549
:1014930082E43583F583E493F582758300C374078F
:1014A3009BFF74017E00A807088005C333CE33CEAB
:1014B300D8F9FFEE5583FEEF55824E600590021476
:1014C3008003900216E0FCA3E0FDECFF121E350B37
:0A14D300EBB4089F0AEA640C70975E
:0114DD0022EC
:10159E00900204EBF0A3EAF0A3E9F0900200EEF063
:0315AE00A3EFF0B8
:1015B10090020BEEF0A3EFF0AF05A3ECF0A3EFF078
:1015C100900204E0FBA3E0FAA3E0F9120AC0FB7069
:1015D1000302165390020DE0FCA3E0FD900207E028
:1015E100FFA3E0900214CFF0A3EFF0900209E0FF17
:1015F100A3E0900216CFF0A3EFF090020BE0FEA360
:10160100E0FF1213F390020CE02408F090020BE0CB
:101611003400F0A3E02408FF90020BE03400FEC385
:10162100EF94F0EE9400401D900200E0FFA3E090E3
:10163100020BCFF0A3EFF090020EE0240CF0900229
:101641000DE03400F0900205E475F001120B7F0209
:0216510015C1C1
:011653002274
:0E1B2700900200EEF0A3EFF0A3ECF0A3EDF0BF
:101B3500EAA3F0AF03A907900200E0FAA3E0FFAE25
:101B450002C006C0072402FBE43AFAA3E0FEA3E0C4
:101B55002402FFE43E900220F0A3EFF0D007D00668
:101B65001218CD900204E0FFAD01121E26E0FF120F
:071B75001E26E0FF021E35F1
:10000E000000101010101010001800002100122413
:10001E004800000000000000002200002424FE48DA
:10002E0048FE484800002300103C54503018145429
:10003E00781000240000E4A4A8F01E2A2A4E000026
:10004E002500003048487EA4948877000026006082
:10005E00204000000000000000002700020C0810E5
:10006E001010100808060028004020100808080884
:10007E00102040002900000010927C7C921000009D
:10008E00002A0000101010FE1010100000002B00AF
:10009E0000000000000000006020402C0000000066
:1000AE00007F0000000000002D0000000000000096
:1000BE0000006000002E0001020604080810202037
:1000CE0040002F00003C2442424242243C000030BB
:1000DE000000107010101010107C00003100003C59
:1000EE004242040810627E00003200003C42021CB4
:1000FE000202423C00003300000C142444443C0431
:10010E000C00003400007E40407C0202423C0000A5
:10011E003500001C24405C6242623C000036000048
:10012E007E4408081010101000003700003C4242B8
:10013E00342C42423C0000380000186442463A0219
:10014E00243C0000390000000018000000001800D8
:10015E00003A0000000000100000001010003B00EC
:10016E00020418204020100C0200003C0000000089
:10017E00FE0000FE000000003D00402018040204B6
:10018E0008304000003E00003C4262020C0800189D
:10019E0000003F00003C469AAAAABC403E00004028
:1001AE00000010182824247C42E70000410000F8CB
:1001BE00444478464242FC00004200003E428080A9
:1001CE008080423C0000430000F8444242424244D8
:1001DE00F80000440000FC424878484042FC000011
:1001EE00450000FC424878484040E00000460000D0
:1001FE003C4480808E8444380000470000E7424231
:10020E007E424242E700004800007C1010101010A1
:10021E00107C00004900003E08080808080888F015
:10022E00004A0000EE444870504844EE00004B0077
:10023E0000E0404040404042FE00004C0000EE6CAA
:10024E006C6C545454D600004D0000C76252524A92
:10025E004646E200004E00003C44828282824438D0
:10026E0000004F0000FC42427C404040E000005045
:10027E0000003844828282B24C380600510000FCE5
:10028E0042427C484446E300005200003E42403861
:10029E000402427C0000530000FE92101010101059
:1002AE00380000540000E74242424242423C000005
:1002BE00550000E74244242C281810000056000078
:1002CE00D69292929A6C64440000570000E766241E
:1002DE0018182466E70000580000EE442838101065
:1002EE00103800005900007E840810102042FC00D7
:1002FE00005A001E10101010101010101E005B007F
:10030E0040202010100808040402005C0078080841
:10031E0008080808080878005D001C22000000008C
:10032E0000000000005E0000000000000000000061
:10033E0000FF5F00200000000000000000000060D1
:10034E0000000000003C423E423F0000610000C041
:10035E0040405C6242427C00006200000000003CB3
:10036E006240423C00006300000602021E624242EE
:10037E003F00006400000000003C427E403E000052
:10038E006500000F10107E1010107C00006600003B
:10039E000000003E4438407C423C670000C04040B4
:1003AE005C624242E70000680000300000701010EE
:1003BE00107C00006900000C00001C0404040404FE
:1003CE00786A0000C040404E587048EE00006B0046
:1003DE0000701010101010107C00006C0000000057
:1003EE0000FF494949ED00006D0000000000D8668D
:1003FE004242E700006E00000000003C4242423CD8
:10040E0000006F0000000000F84642427C40E070A1
:10041E0000000000003E4242423E02077100000012
:10042E000000EE302020F800007200000000003EB8
:10043E00403C427C00007300000010107C10101035
:10044E000C0000740000000000C64242423F000053
:10045E00750000000000E74624281000007600001A
:10046E00000000D7929A6A44000077000000000056
:10047E006E3C183C760000780000000000E7462431
:10048E00181810E07900000000007E4418327E003B
:10049E00007A0007040404080404040403007B0823
:1004AE0008080808080808080808087C00701010DA
:1004BE0010081010101060007D304C03000000007A
:1004CE0000000000007E00000000000000000000A0
:1004DE0000002000190019FF04E87EFF7EFF3CFF9C
:1004EE007DFF9EFF9FFF7DFF5CFF9DFF9EFF9FFF99
:1004FE00BFFFFFFFFFF7DEF7FFFFFFFFDFFFFFF797
:10050E00DFF7DEF7FEFFFEFFFFFFFFF75DFF247153
:10051E004489AECB9EFFBFFFCFD3E38024697DFF1E
:10052E007EFF7FFF5DFF7DFF9EFFBEFF9EFFBFFF35
:10053E009EFF9EFF7DFF7CFFBDFFBEFFFFFF1BFFEB
:10054E002499E3B02FFC7DFF5DFFF0FBE4B86599C5
:10055E001BFF92FC04A1C2B0A2B0E4A8D7FD1CFF01
:10056E002481459995FDE4C0C3B0C7B15DFF9EFFE0
:10057E00DAFE23A9C2C8C6E1CEEBAFEBA7F183D05A
:10058E00C6B9FBFEEFEB03A123D1A2D082D0A3C04C
:10059E00BBFE04A1C3C082D062D882D8C3C031FCD6
:1005AE009EFFDBFEE3B060D060E082D841D800E869
:1005BE0082D869C25CFF35E53DFF1BFF54FD41C883
:1005CE0041C89AFEE3A8A2C882D066E9A3C861C05A
:1005DE00AAE29EFFDBFEE3A8A2D040D882D862D862
:1005EE0000E881D869C25DFF5DFF3DFFB2FC02A944
:1005FE0081D820D079FE24A9C2C0EBFA7AFE65C953
:10060E0082C8CAEA9EFFFBFE04A1C3B88DFB54FD4F
:10061E0075FDA6E9A2C8CBCADBFEF4FCA2B0C1C030
:10062E0080D020E0C2E0B9FE039903B1B6FD1BFFF6
:10063E00CBCAE2C04CFB9EFFFBFEE39804B114FD57
:10064E007DFF5DFF28EAA2C8ABCAFBFE61B881D070
:10065E0003C92BFB40D804E9BAFE039924A199FEE5
:10066E003CFFEBC2E3B88EFB9EFFDBFE04A1E3A8CA
:10067E0034FD7EFF7EFFE8E982D0EBDA54FD82C8BE
:10068E0024D9FCFED4FC63C826F19AFE2499049961
:10069E00FBFE3BFFA9BAC3B8AFFB9EFFDBFE25A155
:1006AE0004A975FDBEFF9EFFE8D9C3C82CD3B6FDC5
:1006BE0081C024D1BBFE15FDA4C046E1BBFE459111
:1006CE0024911CFF1BFFAABA04B9AFF39EFFFDFED7
:1006DE000589449195FDBDFFBEFFC7B104A9CBB2FC
:1006EE001CFFC2B0E3B82489F3FC04B965C1DAFE7D
:1006FE00868945793CFF5DFF089A24A1F0E3BEFF91
:10070E00BCFE92D4B2DCFAFEFEFFBEFFB3E492EC66
:10071E0096ED7DFFD7FD48BACECB58FE50F4F3FCD4
:10072E00DBFED2D4B2CC7EFF7EFFD4DC92EC17FE81
:10073E00FEFFBEFFDFFFBEFFDEFFDEFFDEFFDEFFE2
:10074E00BEFFFFFFDEFF9EFF9EFFBEFFBEFFBEFF92
:10075E00BEFF5DFFBFFFDFFFDFFFBFFFBFFFBEFFBF
:10076E00BDFFDEFF9EFF9DFF7DFFBEFFBEFFBEFFF6
:10077E00BEFFDEFF9EFFBEFFBFFFDFFFDFFFDFFF1F
:10078E00BEFF9EFFBFFF7EFF9EFF9EFF9EFF9EFF52
:10079E00BEFFBEFFDEFF1CFF08B2E2A80BDB5DFF53
:1007AE009EFF9DFFDBFE10E4F8FD7EFF9EFFBEFF69
:1007BE007DFF95FD30ECBAFE3DFF85B1E2A071F4F0
:1007CE001BFF0FE41BFFBEFF8EF3E3B881D0A1C069
:1007DE0004795DFF35FDE39804B1C398AECB7DFF80
:1007EE005DFF08A2E3A804A945791CFF85D981D035
:1007FE00AEFBE3A0E3B0C3981CFFCEFBA2B8A2E011
:10080E00A2C86AAA1CFFC3B861C845C9E4A804916E
:10081E00BBFE14FDE4B0E3B8A2A044791BFF65E172
:10082E0081E081C081C082D882C830FC75FDA6C926
:10083E0041C808F276FD96FD81C860E059FECBEA0C
:10084E0024A992FCABFAA3C0A2A8FBFEFBFE3CFFC0
:10085E0045E141D8A1B8B2FC41D861D88DFBFCFE70
:10086E0069CAE3C0AFFB1DFF10E4A1C843F114FD3C
:10087E008AEAE3B0EFFBC7F9C2C830F45CFFBFFFF2
:10088E005DFFE4D0C3E0EFF3DAFEC7F1A2D0AEFB1A
:10089E001CFF29BAC4B84EFBFCFE6DD3C1C880C87C
:1008AE008198C388E390CEFB61D0A2C851EC9EFF25
:1008BE00DFFF5EFF82C882D0F3F43CFF28F282C8CD
:1008CE0030FC1CFF86B1A3C0AEFB3CFFADD3A1C074
:1008DE0069FA3DFFBFFF9FFF3DFF24C9A2C0B2FCD6
:1008EE007DFFBEFF3CFF82C861C817FE5CFFC8E1FA
:1008FE00A3C891FC1CFF24A1A2C849F2FAFED2F4AF
:10090E00A1C0A2C01CFF5EFF9FFF5EFF6ADAA3B804
:10091E0085B1FBFE17F63CFF61C8A2C818FE5DFF4D
:10092E00C8E162C891FC3DFF86A982D061C88AC227
:10093E00FBFE81B881D861C0E4B04691DCFE93FC29
:10094E00A3B881C8A1B84591FBFE40D081C879FEFD
:10095E007DFF87E183D092FC7EFFCFD3C2B0E2B0A1
:10096E0010DC3DFF30FC81B081C0C2B845913DFF27
:10097E00FCFEC8B1A2C0C2B8A699FCFEA2B0E3A804
:10098E009AFE9EFFC498E4A871E4BFFFBEFF16FE58
:10099E0036FEBEFFBEFF9EFF7DFF54FD38FEBDFF3F
:1009AE00DEFFBFFF7EFF39FE96FDBEFF9DFF7EFF81
:0C09BE007EFFDFFFDFFF9EFF9EFFBFFFFC
:081DB000E0FF121DB8A3E0FFE3
:101DB8007E08C292EF339291EF25E0FFD292DEF2D5
:021DC800D291B6
:011DCA0022F6
:101E3A007E08C292D292EF25E0FF3093034401FF5D
:021E4A00DEF0C8
:011E4C002273
:101DE200E4FC121E3AAD07ED600AED640160050CD9
:061DF200ECB409EEAF05A0
:011DF80022C8
:101DF900EF4440FF121DB890021A121DB0A3121D24
:071E0900B0A3E0FF021DB8C9
:10194200E4900200F0A3F0A3F0A3F07D01D290FC9A
:101952007FFF121DB80CECB40AF6C29090021A1264
:101962000C170000000090021E7495F0E4FF121D97
:10197200F9121DE2AD07ED640160037F0022EDB4B0
:101982000125D2907FFF121DB8C29090021A120C4C
:101992001700FFC00090021E74FFF07F01121DF9B4
:1019A200121DE2AD0780D7D2907FFF121DB87F01D2
:0119B2002212
:0F184200900210EBF0A3EAF0A3E9F0A3120C0B55
:10185100C290900213E0FCA3E0FDA3E0FEA3E0FF31
:1018610090021A120C0B90021E74FFF07F11121DD0
:10187100F9121DE2EF7052121E3ABFFEFAE4FDFCAE
:10188100D3900218E09D900217E09C401E121E3A70
:10189100900210E0FBA3E475F001120B95A9F0FA98
:1018A100EF120B060DBD00010C80D5C3EC94025064
:1018B1000A121E3A0DBD00010C80F0121E3A121ED2
:0B18C1003AD290121E3A7F01227F00F5
:0118CC0022F9
:091E7D00D296D297D295D2972299
:101E1000E4FEC297EF25E0FF9295C29700D29700AB
:051E20000EEEB408EF16
:011E2500229A
:101D9100E4FDFFFEEF25E0FFEE33FED29700C29790
:0E1DA100003094050FBF00010E0DEDB40CE6EE
:011DAF002211
:10170900E4FF900214E0FCA3E0FD900210E0FAA3CC
:10171900E0FBD39DEA9C4008EB9DFDEA9CFC80150B
:10172900900210E0FCA3E0FDC3900215E09DFD903E
:101739000214E09CFC900218ECF0A3EDF090021664
:10174900E0FCA3E0FD900212E0FAA3E0FBD39DEADE
:101759009C4008EB9DFDEA9CFC8015900212E0FC80
:10176900A3E0FDC3900217E09DFD900216E09CFCEA
:10177900C3900219E0940E900218E064809480509E
:101789002BC3ED940BEC6480948050207F01900270
:1017990010E0FDA3E0900243CDF0A3EDF09002121A
:0C17A900E0FDA3E0900245CDF0A3EDF0C0
:0117B5002211
:101C1400121E7DC2967F90121E10D29700C29700AA
:101C2400121D91900212EEF0A3EFF07FD0121E105D
:101C3400D29700C29700121D91900210EEF0A3EF0C
:091C4400F0D2967B017A027910BE
:011C4D002274
:101BCA00121C1478087C027D017E007F04120A9A96
:101BDA00121C14780C7C027D017E007F04120A9A82
:101BEA0078107C027D017B017A0279087E007F04ED
:101BFA00120A9A78147C027D017B017A02790C7EA2
:091C0A00007F04120A9A12170966
:011C130022AE
:1016540074FF900200F0A3F0A3F0A3F030B20302F1
:0D1664001702121BCAEF6401600302170297
:10167100900204F0A3F0A3F0A3F0900244E024B69A
:10168100FF900243E034FEFE7C007D0A120B187DC0
:101691008E120B2A900204EEF0FAA3EFF0FB9002F7
:1016A10046E02484FF900245E034FEFE7C007D0B81
:1016B100120B2A900206EEF0A3EFF0D3EB94F0EABE
:1016C10094004009900204E4F0A374F0F0D3900276
:1016D10007E09440900206E0940140077401F0A3F2
:1016E1007440F0900204E0FFA3E0900200CFF0A369
:1016F100EFF0900206E0FFA3E0900202CFF0A3EF2B
:01170100F0F7
:061702007B017A02790070
:0117080022BE
:1010E5001680FC96E584FC0008C8494AC808080033
:1010F50000807F024C807F80601F00003F40407869
:1011050000BABD20202020202020FF2020202020E4
:1011150020200080804020100C1360030C1020401C
:10112500808000CCAB0000F888888888FF88888894
:1011350088F800000000001F080808087F888888D4
:10114500889F80F000B5E780828282828282E2A257
:10115500928A8682808000000000000040807F0027
:1011650000000000000000D7D304040484E43C27F9
:1011750024242424E40404040004020100FF0909D2
:10118500090949897F00000000D3D000FE225A8654
:1011950000FE9292929292FE00000000FF04080762
:1011A50000FF4020030C1422414000CFDE008040A8
:1011B500201806800007182040800000000100204C
:1011C50070282621202024386000010100B9AB00D9
:1011D5001012929292929292121202FE0000000058
:1011E50000003F101010103F0040807F000000CB32
:0111F500BE3B
:041D0200E0FF7E0080
:101D0600C2B5C2B4E4FDC280EF30E704D2818002DE
:101D1600C281D280EF25E0FFEE33FE0DEDB408E67A
:021D2600D2B534
:011D28002298
:101D4E00C2B5D2B4E4FDC280EF30E704D281800286
:101D5E00C281D280EF25E0FFEE33FE0DEDB408E632
:021D6E00D2B5EC
:011D70002250
:071C8000121D067F057E0026
:101C8700E4FDFCC3ED9FEE6480F8EC64809850158A
:101C9700E4FBFA0BBB00010AEB64014A70F50DBDCA
:051CA70000010C80DECD
:011CAC002215
:1019B300C2B67FE87E03121C87D2B67F147E001264
:1019C3001C877FE2121C807F2C121C807F2E121C2E
:1019D300807F2F121C807F24121D067F817E0012C0
:1019E3001D069010E5E493FF7E00121D067FA27E84
:1019F30000121D067FC87E00121D067FA07E001206
:101A03001D067F407E00121D067FAF7E00021D066D
:101CAD00E4FCEC24B0FFE433FE121D067F107E0031
:101CBD00121D06E4FFFE121D06E4FBE4FFFE121DDD
:0B1CCD004E0BEBB480F50CECB408D714
:011CD80022E9
:0811F600900200EFF0A3EDF000
:1011FE00D3940740037F0022900200E0D3948040F6
:10120E00037F0022900201E024B0F0121D02120AA8
:10121E00C070030212FA900201121D02900200E049
:10122E00FFC4540FFE900203F0EF540FA3F0EE2410
:10123E0010FFE433FE121D06121D02E4FC120AC05A
:10124E00FF75F022ECA42406F582E5F03411F58347
:10125E00E4936F60030212E7900001120AD9FF7542
:10126E00F022ECA42407F582E5F03411F583E49323
:10127E006F7066900202F0900202E0FFC39420505D
:10128E0051EF6410701E900201E02401FFE433FE62
:10129E00121D06900203E02410FFE433FE121D0619
:1012AE00A3121D02900202E0FF75F022ECA424E6C8
:1012BE00F582E5F03410F583E5822FF582E435836F
:1012CE00F583E493FF7E00121D4E900202E004F0BF
:1012DE0080A5900200E02410F00CEC643260030252
:0E12EE00124B740229F9E43AFA02121C7F0135
:0112FC0022CF
:1017C200020C54E493A3F8E493A34003F68001F2DD
:1017D20008DFF48029E493A3F85407240CC8C33328
:1017E200C4540F4420C8834004F456800146F6DFF7
:1017F200E4800B0102040810204080900003E47E84
:10180200019360BCA3FF543F30E509541FFEE493EB
:10181200A360010ECF54C025E060A840B8E493A3B2
:10182200FAE493A3F8E493A3C8C582C8CAC583CADD
:10183200F0A3C8C582C8CAC583CADFE9DEE780BE95
:0100070000F8
:1009CA00E709F608DFFA8046E709F208DFFA803E0F
:1009DA0088828C83E709F0A3DFFA8032E309F608FC
:1009EA00DFFA8078E309F208DFFA807088828C8364
:1009FA00E309F0A3DFFA806489828A83E0A3F60818
:100A0A00DFFA805889828A83E0A3F208DFFA804CF1
:100A1A0080D280FA80C680D4806980F280338010C8
:100A2A0080A680EA809A80A880DA80E280CA803331
:100A3A0089828A83ECFAE493A3C8C582C8CCC583A9
:100A4A00CCF0A3C8C582C8CCC583CCDFE9DEE78079
:100A5A000D89828A83E493A3F608DFF9ECFAA9F0F8
:100A6A00EDFB2289828A83ECFAE0A3C8C582C8CC4E
:100A7A00C583CCF0A3C8C582C8CCC583CCDFEADE67
:100A8A00E880DB89828A83E493A3F208DFF980CCC9
:100A9A0088F0EF60010E4E60C388F0ED2402B404C2
:100AAA000050B9F582EB2402B4040050AF23234569
:060ABA008223900A1A736A
:100AC000BB010689828A83E0225002E722BBFE0234
:090AD000E32289828A83E4932267
:100AD900BB010CE58229F582E5833AF583E02250D2
:100AE90006E92582F8E622BBFE06E92582F8E2221C
:0D0AF900E58229F582E5833AF583E4932236
:100B0600BB010689828A83F0225002F722BBFE01CE
:020B1600F322C8
:100B1800EF8DF0A4A8F0CF8CF0A428CE8DF0A42EF1
:020B2800FE22AB
:100B2A00BC000BBE0029EF8DF084FFADF022E4CCAF
:100B3A00F875F008EF2FFFEE33FEEC33FCEE9DEC78
:100B4A00984005FCEE9DFE0FD5F0E9E4CEFD22EDBE
:100B5A00F8F5F0EE8420D21CFEADF075F008EF2F08
:100B6A00FFED33FD4007985006D5F0F222C398FDF9
:050B7A000FD5F0EA2296
:100B7F00C5F0F8A3E028F0C5F0F8E5821582700201
:060B8F001583E038F0229E
:100B9500A3F8E0C5F025F0F0E58215827002158313
:060BA500E0C838F0E82270
:100BAB00E88FF0A4CC8BF0A42CFCE98EF0A42CFCE9
:100BBB008AF0EDA42CFCEA8EF0A4CDA8F08BF0A467
:100BCB002DCC3825F0FDE98FF0A42CCD35F0FCEBC6
:100BDB008EF0A4FEA9F0EB8FF0A4CFC5F02ECD398B
:0F0BEB00FEE43CFCEAA42DCE35F0FDE43CFC22F8
:100BFA00EB9FF5F0EA9E42F0E99D42F0E89C45F051
:010C0A0022C7
:0C0C0B00ECF0A3EDF0A3EEF0A3EFF0225C
:100C1700A8828583F0D083D082120C2E120C2E125C
:100C27000C2E120C2EE473E493A3C583C5F0C58381
:100C3700C8C582C8F0A3C583C5F0C583C8C582C827
:010C4700228A
:0C0C4800A42582F582E5F03583F58322B7
:00000001FF
